{
  "_format": "hh-sol-artifact-1",
  "contractName": "BuyMeACoffee",
  "sourceName": "contracts/BuyMeACoffee.sol",
  "abi": [
    {
      "inputs": [],
      "stateMutability": "nonpayable",
      "type": "constructor"
    },
    {
      "anonymous": false,
      "inputs": [
        {
          "indexed": true,
          "internalType": "address",
          "name": "from",
          "type": "address"
        },
        {
          "indexed": false,
          "internalType": "uint256",
          "name": "timestamp",
          "type": "uint256"
        },
        {
          "indexed": false,
          "internalType": "string",
          "name": "name",
          "type": "string"
        },
        {
          "indexed": false,
          "internalType": "string",
          "name": "message",
          "type": "string"
        }
      ],
      "name": "NewMemo",
      "type": "event"
    },
    {
      "inputs": [
        {
          "internalType": "string",
          "name": "_name",
          "type": "string"
        },
        {
          "internalType": "string",
          "name": "_message",
          "type": "string"
        }
      ],
      "name": "buyCoffee",
      "outputs": [],
      "stateMutability": "payable",
      "type": "function"
    },
    {
      "inputs": [
        {
          "internalType": "string",
          "name": "_name",
          "type": "string"
        },
        {
          "internalType": "string",
          "name": "_message",
          "type": "string"
        }
      ],
      "name": "buyLargeCoffee",
      "outputs": [],
      "stateMutability": "payable",
      "type": "function"
    },
    {
      "inputs": [],
      "name": "getMemos",
      "outputs": [
        {
          "components": [
            {
              "internalType": "address",
              "name": "from",
              "type": "address"
            },
            {
              "internalType": "uint256",
              "name": "timestamp",
              "type": "uint256"
            },
            {
              "internalType": "string",
              "name": "name",
              "type": "string"
            },
            {
              "internalType": "string",
              "name": "message",
              "type": "string"
            }
          ],
          "internalType": "struct BuyMeACoffee.Memo[]",
          "name": "",
          "type": "tuple[]"
        }
      ],
      "stateMutability": "view",
      "type": "function"
    },
    {
      "inputs": [],
      "name": "updateWithdrawal",
      "outputs": [],
      "stateMutability": "nonpayable",
      "type": "function"
    },
    {
      "inputs": [],
      "name": "withdrawTips",
      "outputs": [],
      "stateMutability": "nonpayable",
      "type": "function"
    }
  ],
  "bytecode": "0x608060405234801561001057600080fd5b50336000806101000a81548173ffffffffffffffffffffffffffffffffffffffff021916908373ffffffffffffffffffffffffffffffffffffffff16021790555033600160006101000a81548173ffffffffffffffffffffffffffffffffffffffff021916908373ffffffffffffffffffffffffffffffffffffffff160217905550610e29806100a16000396000f3fe60806040526004361061004a5760003560e01c806308a7fa601461004f578063204206e1146100665780633aaa74b214610082578063417f9ea914610099578063865c5172146100b5575b600080fd5b34801561005b57600080fd5b506100646100e0565b005b610080600480360381019061007b9190610818565b6101b1565b005b34801561008e57600080fd5b50610097610339565b005b6100b360048036038101906100ae9190610818565b61039b565b005b3480156100c157600080fd5b506100ca61052a565b6040516100d79190610a7f565b60405180910390f35b60008054906101000a900473ffffffffffffffffffffffffffffffffffffffff1673ffffffffffffffffffffffffffffffffffffffff163373ffffffffffffffffffffffffffffffffffffffff161461016e576040517f08c379a000000000000000000000000000000000000000000000000000000000815260040161016590610ae1565b60405180910390fd5b33600160006101000a81548173ffffffffffffffffffffffffffffffffffffffff021916908373ffffffffffffffffffffffffffffffffffffffff160217905550565b600034116101f4576040517f08c379a00000000000000000000000000000000000000000000000000000000081526004016101eb90610aa1565b60405180910390fd5b600260405180608001604052803373ffffffffffffffffffffffffffffffffffffffff16815260200142815260200184815260200183815250908060018154018082558091505060019003906000526020600020906004020160009091909190915060008201518160000160006101000a81548173ffffffffffffffffffffffffffffffffffffffff021916908373ffffffffffffffffffffffffffffffffffffffff1602179055506020820151816001015560408201518160020190805190602001906102c392919061070d565b5060608201518160030190805190602001906102e092919061070d565b5050503373ffffffffffffffffffffffffffffffffffffffff167fc56140e05f516509ae28110e0f72e17558a7561630dad2647c3ae87d986e365c42848460405161032d93929190610b01565b60405180910390a25050565b600160009054906101000a900473ffffffffffffffffffffffffffffffffffffffff1673ffffffffffffffffffffffffffffffffffffffff166108fc479081150290604051600060405180830381858888f1935050505061039957600080fd5b565b660aa87bee5380003410156103e5576040517f08c379a00000000000000000000000000000000000000000000000000000000081526004016103dc90610ac1565b60405180910390fd5b600260405180608001604052803373ffffffffffffffffffffffffffffffffffffffff16815260200142815260200184815260200183815250908060018154018082558091505060019003906000526020600020906004020160009091909190915060008201518160000160006101000a81548173ffffffffffffffffffffffffffffffffffffffff021916908373ffffffffffffffffffffffffffffffffffffffff1602179055506020820151816001015560408201518160020190805190602001906104b492919061070d565b5060608201518160030190805190602001906104d192919061070d565b5050503373ffffffffffffffffffffffffffffffffffffffff167fc56140e05f516509ae28110e0f72e17558a7561630dad2647c3ae87d986e365c42848460405161051e93929190610b01565b60405180910390a25050565b60606002805480602002602001604051908101604052809291908181526020016000905b8282101561070457838290600052602060002090600402016040518060800160405290816000820160009054906101000a900473ffffffffffffffffffffffffffffffffffffffff1673ffffffffffffffffffffffffffffffffffffffff1673ffffffffffffffffffffffffffffffffffffffff168152602001600182015481526020016002820180546105e190610c80565b80601f016020809104026020016040519081016040528092919081815260200182805461060d90610c80565b801561065a5780601f1061062f5761010080835404028352916020019161065a565b820191906000526020600020905b81548152906001019060200180831161063d57829003601f168201915b5050505050815260200160038201805461067390610c80565b80601f016020809104026020016040519081016040528092919081815260200182805461069f90610c80565b80156106ec5780601f106106c1576101008083540402835291602001916106ec565b820191906000526020600020905b8154815290600101906020018083116106cf57829003601f168201915b5050505050815250508152602001906001019061054e565b50505050905090565b82805461071990610c80565b90600052602060002090601f01602090048101928261073b5760008555610782565b82601f1061075457805160ff1916838001178555610782565b82800160010185558215610782579182015b82811115610781578251825591602001919060010190610766565b5b50905061078f9190610793565b5090565b5b808211156107ac576000816000905550600101610794565b5090565b60006107c36107be84610b6b565b610b46565b9050828152602081018484840111156107db57600080fd5b6107e6848285610c3e565b509392505050565b600082601f8301126107ff57600080fd5b813561080f8482602086016107b0565b91505092915050565b6000806040838503121561082b57600080fd5b600083013567ffffffffffffffff81111561084557600080fd5b610851858286016107ee565b925050602083013567ffffffffffffffff81111561086e57600080fd5b61087a858286016107ee565b9150509250929050565b600061089083836109f7565b905092915050565b6108a181610c02565b82525050565b60006108b282610bac565b6108bc8185610bcf565b9350836020820285016108ce85610b9c565b8060005b8581101561090a57848403895281516108eb8582610884565b94506108f683610bc2565b925060208a019950506001810190506108d2565b50829750879550505050505092915050565b600061092782610bb7565b6109318185610be0565b9350610941818560208601610c4d565b61094a81610d41565b840191505092915050565b600061096082610bb7565b61096a8185610bf1565b935061097a818560208601610c4d565b61098381610d41565b840191505092915050565b600061099b601a83610bf1565b91506109a682610d52565b602082019050919050565b60006109be602683610bf1565b91506109c982610d7b565b604082019050919050565b60006109e1601b83610bf1565b91506109ec82610dca565b602082019050919050565b6000608083016000830151610a0f6000860182610898565b506020830151610a226020860182610a61565b5060408301518482036040860152610a3a828261091c565b91505060608301518482036060860152610a54828261091c565b9150508091505092915050565b610a6a81610c34565b82525050565b610a7981610c34565b82525050565b60006020820190508181036000830152610a9981846108a7565b905092915050565b60006020820190508181036000830152610aba8161098e565b9050919050565b60006020820190508181036000830152610ada816109b1565b9050919050565b60006020820190508181036000830152610afa816109d4565b9050919050565b6000606082019050610b166000830186610a70565b8181036020830152610b288185610955565b90508181036040830152610b3c8184610955565b9050949350505050565b6000610b50610b61565b9050610b5c8282610cb2565b919050565b6000604051905090565b600067ffffffffffffffff821115610b8657610b85610d12565b5b610b8f82610d41565b9050602081019050919050565b6000819050602082019050919050565b600081519050919050565b600081519050919050565b6000602082019050919050565b600082825260208201905092915050565b600082825260208201905092915050565b600082825260208201905092915050565b6000610c0d82610c14565b9050919050565b600073ffffffffffffffffffffffffffffffffffffffff82169050919050565b6000819050919050565b82818337600083830152505050565b60005b83811015610c6b578082015181840152602081019050610c50565b83811115610c7a576000848401525b50505050565b60006002820490506001821680610c9857607f821691505b60208210811415610cac57610cab610ce3565b5b50919050565b610cbb82610d41565b810181811067ffffffffffffffff82111715610cda57610cd9610d12565b5b80604052505050565b7f4e487b7100000000000000000000000000000000000000000000000000000000600052602260045260246000fd5b7f4e487b7100000000000000000000000000000000000000000000000000000000600052604160045260246000fd5b6000601f19601f8301169050919050565b7f63616e27742062757920636f6666656520666f72206672656521000000000000600082015250565b7f4c6172676520636f6666656520636f737473206174206c6561737420302e303060008201527f3320455448200000000000000000000000000000000000000000000000000000602082015250565b7f596f752063616e277420757064617465207769746864726177616c000000000060008201525056fea2646970667358221220be525fbfe988cd0a1e54f9709b709703780f667cd402b106b89573c0b77cdc9f64736f6c63430008040033",
  "linkReferences": {},
  "deployedLinkReferences": {}
}